{
  "contractName": "objectFactory",
  "abi": [
    {
      "constant": true,
      "inputs": [
        {
          "name": "",
          "type": "uint256"
        }
      ],
      "name": "objectToOwner",
      "outputs": [
        {
          "name": "",
          "type": "address"
        }
      ],
      "payable": false,
      "stateMutability": "view",
      "type": "function"
    },
    {
      "constant": true,
      "inputs": [
        {
          "name": "",
          "type": "uint256"
        }
      ],
      "name": "objects",
      "outputs": [
        {
          "name": "name",
          "type": "string"
        },
        {
          "name": "status",
          "type": "uint8"
        },
        {
          "name": "bettorsCount",
          "type": "uint64"
        },
        {
          "name": "totalCost",
          "type": "uint256"
        }
      ],
      "payable": false,
      "stateMutability": "view",
      "type": "function"
    },
    {
      "anonymous": false,
      "inputs": [
        {
          "indexed": false,
          "name": "objectId",
          "type": "uint256"
        },
        {
          "indexed": false,
          "name": "name",
          "type": "string"
        },
        {
          "indexed": false,
          "name": "_bettorsCount",
          "type": "uint64"
        },
        {
          "indexed": false,
          "name": "_totalCost",
          "type": "uint256"
        }
      ],
      "name": "newObject",
      "type": "event"
    },
    {
      "constant": false,
      "inputs": [
        {
          "name": "_name",
          "type": "string"
        },
        {
          "name": "_bettorsCount",
          "type": "uint64"
        },
        {
          "name": "_totalCost",
          "type": "uint256"
        }
      ],
      "name": "createObject",
      "outputs": [],
      "payable": false,
      "stateMutability": "nonpayable",
      "type": "function"
    }
  ],
  "bytecode": "0x608060405234801561001057600080fd5b50610679806100206000396000f300608060405260043610610057576000357c0100000000000000000000000000000000000000000000000000000000900463ffffffff1680639e2f74a61461005c578063c793cff9146100e3578063ed17585014610150575b600080fd5b34801561006857600080fd5b506100e1600480360381019080803590602001908201803590602001908080601f0160208091040260200160405190810160405280939291908181526020018383808284378201915050505050509192919290803567ffffffffffffffff16906020019092919080359060200190929190505050610225565b005b3480156100ef57600080fd5b5061010e60048036038101908080359060200190929190505050610235565b604051808273ffffffffffffffffffffffffffffffffffffffff1673ffffffffffffffffffffffffffffffffffffffff16815260200191505060405180910390f35b34801561015c57600080fd5b5061017b60048036038101908080359060200190929190505050610268565b60405180806020018560ff1660ff1681526020018467ffffffffffffffff1667ffffffffffffffff168152602001838152602001828103825286818151815260200191508051906020019080838360005b838110156101e75780820151818401526020810190506101cc565b50505050905090810190601f1680156102145780820380516001836020036101000a031916815260200191505b509550505050505060405180910390f35b610230838383610360565b505050565b60016020528060005260406000206000915054906101000a900473ffffffffffffffffffffffffffffffffffffffff1681565b60008181548110151561027757fe5b9060005260206000209060030201600091509050806000018054600181600116156101000203166002900480601f0160208091040260200160405190810160405280929190818152602001828054600181600116156101000203166002900480156103235780601f106102f857610100808354040283529160200191610323565b820191906000526020600020905b81548152906001019060200180831161030657829003601f168201915b5050505050908060010160009054906101000a900460ff16908060010160019054906101000a900467ffffffffffffffff16908060020154905084565b600080608060405190810160405280868152602001600060ff1681526020018567ffffffffffffffff168152602001848152509080600181540180825580915050906001820390600052602060002090600302016000909192909190915060008201518160000190805190602001906103da9291906105a8565b5060208201518160010160006101000a81548160ff021916908360ff16021790555060408201518160010160016101000a81548167ffffffffffffffff021916908367ffffffffffffffff1602179055506060820151816002015550509050336001600083815260200190815260200160002060006101000a81548173ffffffffffffffffffffffffffffffffffffffff021916908373ffffffffffffffffffffffffffffffffffffffff160217905550600260003373ffffffffffffffffffffffffffffffffffffffff1673ffffffffffffffffffffffffffffffffffffffff168152602001908152602001600020600081548092919060010191905055507f5098e475be5a9043a7a39fe2fb89197c366b5b5a179875d7f6e887b6521b6ec38185858560405180858152602001806020018467ffffffffffffffff1667ffffffffffffffff168152602001838152602001828103825285818151815260200191508051906020019080838360005b8381101561056557808201518184015260208101905061054a565b50505050905090810190601f1680156105925780820380516001836020036101000a031916815260200191505b509550505050505060405180910390a150505050565b828054600181600116156101000203166002900490600052602060002090601f016020900481019282601f106105e957805160ff1916838001178555610617565b82800160010185558215610617579182015b828111156106165782518255916020019190600101906105fb565b5b5090506106249190610628565b5090565b61064a91905b8082111561064657600081600090555060010161062e565b5090565b905600a165627a7a72305820b5945420649581845e93b3f5c960f1ce4fb9abe528e96e5a1757ee0eef893e650029",
  "source": "pragma solidity ^0.4.24;\n\n\ncontract objectFactory {\n\n  event newObject(uint objectId, string name, uint64 _bettorsCount,\n                  uint _totalCost);\n\n  struct Object{\n    string name;\n    uint8 status;\n    uint64 bettorsCount;\n    uint totalCost;\n  }\n\n  Object[] public objects;\n\n  mapping (uint => address) public objectToOwner;\n  mapping (address => uint) ownerObjectsCount;\n//  mapping (uint => string) statusName;\n\n\n  function _createObject(string _name, uint64 _bettorsCount, uint _totalCost) internal {\n    uint id = objects.push(Object(_name, 0, _bettorsCount, _totalCost));\n    objectToOwner[id] = msg.sender;\n    ownerObjectsCount[msg.sender]++;\n    emit newObject(id, _name, _bettorsCount, _totalCost);\n  }\n\n  function createObject(string _name, uint64 _bettorsCount, uint _totalCost) public {\n    _createObject(_name, _bettorsCount, _totalCost);\n  }\n}\n",
  "sourcePath": "/home/mq/cryptoobjects/contracts/ObjectFactory.sol",
  "compiler": {
    "name": "solc",
    "version": "0.4.24+commit.e67f0147.Emscripten.clang"
  },
  "schemaVersion": "2.0.1",
  "updatedAt": "2018-10-25T18:13:13.573Z"
}