{
  "contractName": "ObjectFactory",
  "abi": [
    {
      "constant": true,
      "inputs": [
        {
          "name": "",
          "type": "uint256"
        }
      ],
      "name": "betToObject",
      "outputs": [
        {
          "name": "",
          "type": "uint256"
        }
      ],
      "payable": false,
      "stateMutability": "view",
      "type": "function"
    },
    {
      "constant": true,
      "inputs": [
        {
          "name": "",
          "type": "uint256"
        }
      ],
      "name": "objectToOwner",
      "outputs": [
        {
          "name": "",
          "type": "address"
        }
      ],
      "payable": false,
      "stateMutability": "view",
      "type": "function"
    },
    {
      "constant": true,
      "inputs": [
        {
          "name": "",
          "type": "uint256"
        }
      ],
      "name": "objects",
      "outputs": [
        {
          "name": "name",
          "type": "string"
        },
        {
          "name": "status",
          "type": "uint8"
        },
        {
          "name": "totalCostInEther",
          "type": "uint256"
        },
        {
          "name": "numBettors",
          "type": "uint256"
        }
      ],
      "payable": false,
      "stateMutability": "view",
      "type": "function"
    },
    {
      "anonymous": false,
      "inputs": [
        {
          "indexed": false,
          "name": "objectId",
          "type": "uint256"
        },
        {
          "indexed": false,
          "name": "name",
          "type": "string"
        },
        {
          "indexed": false,
          "name": "_totalCostInEther",
          "type": "uint256"
        },
        {
          "indexed": false,
          "name": "_numBettors",
          "type": "uint256"
        }
      ],
      "name": "newObject",
      "type": "event"
    },
    {
      "constant": false,
      "inputs": [
        {
          "name": "_name",
          "type": "string"
        },
        {
          "name": "_totalCostInEther",
          "type": "uint256"
        },
        {
          "name": "_numBettors",
          "type": "uint256"
        }
      ],
      "name": "createObject",
      "outputs": [
        {
          "name": "success",
          "type": "bool"
        }
      ],
      "payable": true,
      "stateMutability": "payable",
      "type": "function"
    },
    {
      "constant": true,
      "inputs": [
        {
          "name": "_id",
          "type": "uint256"
        }
      ],
      "name": "objectFund",
      "outputs": [
        {
          "name": "",
          "type": "uint256"
        }
      ],
      "payable": false,
      "stateMutability": "view",
      "type": "function"
    },
    {
      "constant": true,
      "inputs": [],
      "name": "objectsCount",
      "outputs": [
        {
          "name": "",
          "type": "uint256"
        }
      ],
      "payable": false,
      "stateMutability": "view",
      "type": "function"
    },
    {
      "constant": true,
      "inputs": [
        {
          "name": "_id",
          "type": "uint256"
        }
      ],
      "name": "getObject",
      "outputs": [
        {
          "name": "",
          "type": "string"
        },
        {
          "name": "",
          "type": "uint8"
        },
        {
          "name": "",
          "type": "uint256"
        },
        {
          "name": "",
          "type": "uint256"
        }
      ],
      "payable": false,
      "stateMutability": "view",
      "type": "function"
    }
  ],
  "bytecode": "0x608060405234801561001057600080fd5b50610996806100206000396000f300608060405260043610610083576000357c0100000000000000000000000000000000000000000000000000000000900463ffffffff1680631ed1dda41461008857806328316b39146100b35780632f706feb1461017c578063510acd18146102045780636ef8d27c14610245578063c793cff914610286578063ed175850146102f3575b600080fd5b34801561009457600080fd5b5061009d6103bc565b6040518082815260200191505060405180910390f35b3480156100bf57600080fd5b506100de600480360381019080803590602001909291905050506103c8565b60405180806020018560028111156100f257fe5b60ff168152602001848152602001838152602001828103825286818151815260200191508051906020019080838360005b8381101561013e578082015181840152602081019050610123565b50505050905090810190601f16801561016b5780820380516001836020036101000a031916815260200191505b509550505050505060405180910390f35b6101ea600480360381019080803590602001908201803590602001908080601f0160208091040260200160405190810160405280939291908181526020018383808284378201915050505050509192919290803590602001909291908035906020019092919050505061050c565b604051808215151515815260200191505060405180910390f35b34801561021057600080fd5b5061022f60048036038101908080359060200190929190505050610524565b6040518082815260200191505060405180910390f35b34801561025157600080fd5b506102706004803603810190808035906020019092919050505061053c565b6040518082815260200191505060405180910390f35b34801561029257600080fd5b506102b160048036038101908080359060200190929190505050610565565b604051808273ffffffffffffffffffffffffffffffffffffffff1673ffffffffffffffffffffffffffffffffffffffff16815260200191505060405180910390f35b3480156102ff57600080fd5b5061031e60048036038101908080359060200190929190505050610598565b604051808060200185600281111561033257fe5b60ff168152602001848152602001838152602001828103825286818151815260200191508051906020019080838360005b8381101561037e578082015181840152602081019050610363565b50505050905090810190601f1680156103ab5780820380516001836020036101000a031916815260200191505b509550505050505060405180910390f35b60008080549050905090565b606060008060006103d7610891565b6000868154811015156103e657fe5b906000526020600020906005020160806040519081016040529081600082018054600181600116156101000203166002900480601f0160208091040260200160405190810160405280929190818152602001828054600181600116156101000203166002900480156104995780601f1061046e57610100808354040283529160200191610499565b820191906000526020600020905b81548152906001019060200180831161047c57829003601f168201915b505050505081526020016001820160009054906101000a900460ff1660028111156104c057fe5b60028111156104cb57fe5b815260200160028201548152602001600382015481525050905080600001518160200151826060015183604001518393509450945094509450509193509193565b600061051984848461067c565b600190509392505050565b60036020528060005260406000206000915090505481565b6000808281548110151561054c57fe5b9060005260206000209060050201600201549050919050565b60016020528060005260406000206000915054906101000a900473ffffffffffffffffffffffffffffffffffffffff1681565b6000818154811015156105a757fe5b9060005260206000209060050201600091509050806000018054600181600116156101000203166002900480601f0160208091040260200160405190810160405280929190818152602001828054600181600116156101000203166002900480156106535780601f1061062857610100808354040283529160200191610653565b820191906000526020600020905b81548152906001019060200180831161063657829003601f168201915b5050505050908060010160009054906101000a900460ff16908060020154908060030154905084565b6000806080604051908101604052808681526020016000600281111561069e57fe5b8152602001858152602001848152509080600181540180825580915050906001820390600052602060002090600502016000909192909190915060008201518160000190805190602001906106f49291906108c5565b5060208201518160010160006101000a81548160ff0219169083600281111561071957fe5b0217905550604082015181600201556060820151816003015550509050336001600083815260200190815260200160002060006101000a81548173ffffffffffffffffffffffffffffffffffffffff021916908373ffffffffffffffffffffffffffffffffffffffff160217905550600260003373ffffffffffffffffffffffffffffffffffffffff1673ffffffffffffffffffffffffffffffffffffffff168152602001908152602001600020600081548092919060010191905055507feb04f953a9d1ed8d68f537a130174466040016a4cb8fd8e0b241a19e91766d59818585856040518085815260200180602001848152602001838152602001828103825285818151815260200191508051906020019080838360005b8381101561084e578082015181840152602081019050610833565b50505050905090810190601f16801561087b5780820380516001836020036101000a031916815260200191505b509550505050505060405180910390a150505050565b60806040519081016040528060608152602001600060028111156108b157fe5b815260200160008152602001600081525090565b828054600181600116156101000203166002900490600052602060002090601f016020900481019282601f1061090657805160ff1916838001178555610934565b82800160010185558215610934579182015b82811115610933578251825591602001919060010190610918565b5b5090506109419190610945565b5090565b61096791905b8082111561096357600081600090555060010161094b565b5090565b905600a165627a7a7230582099a3e811f5f8cc7cdf4062dc76c750314a3eb9d23b71688b4a5ad71f18cf95350029",
  "source": "pragma solidity ^0.4.24;\n\nimport \"./SafeMath.sol\";\n// Needs to be Ownable for later.\n\ncontract ObjectFactory {\n\n  event newObject(uint objectId, string name, uint _totalCostInEther, uint _numBettors);\n\n  enum Status {inactive, active, processed}\n\n  struct Object{\n    string name;\n    Status status;\n    uint totalCostInEther;\n    uint numBettors;\n    mapping (uint => address) bettors;\n  }\n\n  Object[] public objects;\n\n  mapping (uint => address) public objectToOwner;\n  mapping (address => uint) ownerObjectsCount;\n  mapping (uint => uint) public betToObject;\n\n  function createObject(string _name, uint _totalCostInEther, uint _numBettors) public payable returns(bool success) {\n    //require(msg.value == ((_totalCostInEther * 5)/100));\n    _createObject(_name, _totalCostInEther, _numBettors);\n    return true;\n  }\n\n  function objectFund(uint _id) public view returns(uint){\n    return(objects[_id].totalCostInEther);\n  }\n\n  function _createObject(string _name, uint _totalCostInEther, uint _numBettors) internal {\n    uint id = objects.push(Object(_name, Status.inactive, _totalCostInEther, _numBettors));\n    objectToOwner[id] = msg.sender;\n    ownerObjectsCount[msg.sender]++;\n    emit newObject(id, _name, _totalCostInEther, _numBettors);\n  }\n\n  function objectsCount() external view returns(uint){\n    return objects.length;\n  }\n\n  function getObject(uint _id) public view returns(string, Status, uint, uint) {\n    Object memory o = objects[_id];\n    return(o.name, o.status, o.numBettors, o.totalCostInEther);\n  }\n\n}\n",
  "sourcePath": "/home/mq/cbay/contracts/ObjectFactory.sol",
  "compiler": {
    "name": "solc",
    "version": "0.4.24+commit.e67f0147.Emscripten.clang"
  },
  "schemaVersion": "2.0.1",
  "updatedAt": "2018-11-01T20:05:13.985Z"
}