{
  "contractName": "ObjectFactory",
  "abi": [
    {
      "constant": true,
      "inputs": [
        {
          "name": "",
          "type": "uint256"
        }
      ],
      "name": "betToObject",
      "outputs": [
        {
          "name": "",
          "type": "uint256"
        }
      ],
      "payable": false,
      "stateMutability": "view",
      "type": "function"
    },
    {
      "constant": true,
      "inputs": [
        {
          "name": "",
          "type": "uint256"
        }
      ],
      "name": "objectToOwner",
      "outputs": [
        {
          "name": "",
          "type": "address"
        }
      ],
      "payable": false,
      "stateMutability": "view",
      "type": "function"
    },
    {
      "constant": true,
      "inputs": [
        {
          "name": "",
          "type": "uint256"
        }
      ],
      "name": "objects",
      "outputs": [
        {
          "name": "name",
          "type": "string"
        },
        {
          "name": "status",
          "type": "uint8"
        },
        {
          "name": "totalCostInEther",
          "type": "uint256"
        },
        {
          "name": "numBettors",
          "type": "uint256"
        }
      ],
      "payable": false,
      "stateMutability": "view",
      "type": "function"
    },
    {
      "anonymous": false,
      "inputs": [
        {
          "indexed": false,
          "name": "objectId",
          "type": "uint256"
        },
        {
          "indexed": false,
          "name": "name",
          "type": "string"
        },
        {
          "indexed": false,
          "name": "_totalCostInEther",
          "type": "uint256"
        },
        {
          "indexed": false,
          "name": "_numBettors",
          "type": "uint256"
        }
      ],
      "name": "newObject",
      "type": "event"
    },
    {
      "constant": false,
      "inputs": [
        {
          "name": "_name",
          "type": "string"
        },
        {
          "name": "_totalCostInEther",
          "type": "uint256"
        },
        {
          "name": "_numBettors",
          "type": "uint256"
        }
      ],
      "name": "createObject",
      "outputs": [
        {
          "name": "success",
          "type": "bool"
        }
      ],
      "payable": true,
      "stateMutability": "payable",
      "type": "function"
    },
    {
      "constant": true,
      "inputs": [
        {
          "name": "_id",
          "type": "uint256"
        }
      ],
      "name": "objectFund",
      "outputs": [
        {
          "name": "",
          "type": "uint256"
        }
      ],
      "payable": false,
      "stateMutability": "view",
      "type": "function"
    },
    {
      "constant": true,
      "inputs": [
        {
          "name": "_id",
          "type": "uint256"
        }
      ],
      "name": "objectBetAmount",
      "outputs": [
        {
          "name": "",
          "type": "uint256"
        }
      ],
      "payable": false,
      "stateMutability": "view",
      "type": "function"
    },
    {
      "constant": true,
      "inputs": [],
      "name": "objectsCount",
      "outputs": [
        {
          "name": "",
          "type": "uint256"
        }
      ],
      "payable": false,
      "stateMutability": "view",
      "type": "function"
    },
    {
      "constant": true,
      "inputs": [
        {
          "name": "_id",
          "type": "uint256"
        }
      ],
      "name": "getObject",
      "outputs": [
        {
          "name": "",
          "type": "string"
        },
        {
          "name": "",
          "type": "uint8"
        },
        {
          "name": "",
          "type": "uint256"
        },
        {
          "name": "",
          "type": "uint256"
        }
      ],
      "payable": false,
      "stateMutability": "view",
      "type": "function"
    }
  ],
  "bytecode": "0x6080604052600a60005534801561001557600080fd5b50610b1d806100256000396000f30060806040526004361061008e576000357c0100000000000000000000000000000000000000000000000000000000900463ffffffff1680631ed1dda41461009357806328316b39146100be5780632f706feb146101875780634e0427421461020f578063510acd18146102505780636ef8d27c14610291578063c793cff9146102d2578063ed1758501461033f575b600080fd5b34801561009f57600080fd5b506100a8610408565b6040518082815260200191505060405180910390f35b3480156100ca57600080fd5b506100e960048036038101908080359060200190929190505050610415565b60405180806020018560028111156100fd57fe5b60ff168152602001848152602001838152602001828103825286818151815260200191508051906020019080838360005b8381101561014957808201518184015260208101905061012e565b50505050905090810190601f1680156101765780820380516001836020036101000a031916815260200191505b509550505050505060405180910390f35b6101f5600480360381019080803590602001908201803590602001908080601f01602080910402602001604051908101604052809392919081815260200183838082843782019150505050505091929192908035906020019092919080359060200190929190505050610559565b604051808215151515815260200191505060405180910390f35b34801561021b57600080fd5b5061023a60048036038101908080359060200190929190505050610571565b6040518082815260200191505060405180910390f35b34801561025c57600080fd5b5061027b600480360381019080803590602001909291905050506105ab565b6040518082815260200191505060405180910390f35b34801561029d57600080fd5b506102bc600480360381019080803590602001909291905050506105c3565b6040518082815260200191505060405180910390f35b3480156102de57600080fd5b506102fd600480360381019080803590602001909291905050506106eb565b604051808273ffffffffffffffffffffffffffffffffffffffff1673ffffffffffffffffffffffffffffffffffffffff16815260200191505060405180910390f35b34801561034b57600080fd5b5061036a6004803603810190808035906020019092919050505061071e565b604051808060200185600281111561037e57fe5b60ff168152602001848152602001838152602001828103825286818151815260200191508051906020019080838360005b838110156103ca5780820151818401526020810190506103af565b50505050905090810190601f1680156103f75780820380516001836020036101000a031916815260200191505b509550505050505060405180910390f35b6000600180549050905090565b60606000806000610424610a18565b60018681548110151561043357fe5b906000526020600020906005020160806040519081016040529081600082018054600181600116156101000203166002900480601f0160208091040260200160405190810160405280929190818152602001828054600181600116156101000203166002900480156104e65780601f106104bb576101008083540402835291602001916104e6565b820191906000526020600020905b8154815290600101906020018083116104c957829003601f168201915b505050505081526020016001820160009054906101000a900460ff16600281111561050d57fe5b600281111561051857fe5b815260200160028201548152602001600382015481525050905080600001518160200151826060015183604001518393509450945094509450509193509193565b6000610566848484610802565b600190509392505050565b6000606460005460018481548110151561058757fe5b906000526020600020906005020160020154028115156105a357fe5b049050919050565b60046020528060005260406000206000915090505481565b60006105cd610a18565b60006001848154811015156105de57fe5b906000526020600020906005020160806040519081016040529081600082018054600181600116156101000203166002900480601f0160208091040260200160405190810160405280929190818152602001828054600181600116156101000203166002900480156106915780601f1061066657610100808354040283529160200191610691565b820191906000526020600020905b81548152906001019060200180831161067457829003601f168201915b505050505081526020016001820160009054906101000a900460ff1660028111156106b857fe5b60028111156106c357fe5b8152602001600282015481526020016003820154815250509150600a90508092505050919050565b60026020528060005260406000206000915054906101000a900473ffffffffffffffffffffffffffffffffffffffff1681565b60018181548110151561072d57fe5b9060005260206000209060050201600091509050806000018054600181600116156101000203166002900480601f0160208091040260200160405190810160405280929190818152602001828054600181600116156101000203166002900480156107d95780601f106107ae576101008083540402835291602001916107d9565b820191906000526020600020905b8154815290600101906020018083116107bc57829003601f168201915b5050505050908060010160009054906101000a900460ff16908060020154908060030154905084565b600060016080604051908101604052808681526020016000600281111561082557fe5b81526020018581526020018481525090806001815401808255809150509060018203906000526020600020906005020160009091929091909150600082015181600001908051906020019061087b929190610a4c565b5060208201518160010160006101000a81548160ff021916908360028111156108a057fe5b0217905550604082015181600201556060820151816003015550509050336002600083815260200190815260200160002060006101000a81548173ffffffffffffffffffffffffffffffffffffffff021916908373ffffffffffffffffffffffffffffffffffffffff160217905550600360003373ffffffffffffffffffffffffffffffffffffffff1673ffffffffffffffffffffffffffffffffffffffff168152602001908152602001600020600081548092919060010191905055507feb04f953a9d1ed8d68f537a130174466040016a4cb8fd8e0b241a19e91766d59818585856040518085815260200180602001848152602001838152602001828103825285818151815260200191508051906020019080838360005b838110156109d55780820151818401526020810190506109ba565b50505050905090810190601f168015610a025780820380516001836020036101000a031916815260200191505b509550505050505060405180910390a150505050565b6080604051908101604052806060815260200160006002811115610a3857fe5b815260200160008152602001600081525090565b828054600181600116156101000203166002900490600052602060002090601f016020900481019282601f10610a8d57805160ff1916838001178555610abb565b82800160010185558215610abb579182015b82811115610aba578251825591602001919060010190610a9f565b5b509050610ac89190610acc565b5090565b610aee91905b80821115610aea576000816000905550600101610ad2565b5090565b905600a165627a7a7230582004de60df11039a6520578dd124bf2b4bdce7a513f22614ceccaacaeeadc8a8320029",
  "source": "pragma solidity ^0.4.24;\n\nimport \"./SafeMath.sol\";\n// Needs to be Ownable for later.\n\ncontract ObjectFactory {\n\n  uint depositPercent = 10;\n\n  event newObject(uint objectId, string name, uint _totalCostInEther, uint _numBettors);\n\n  enum Status {inactive, active, processed}\n\n  struct Object{\n    string name;\n    Status status;\n    uint totalCostInEther;\n    uint numBettors;\n    mapping (uint => address) bettors;\n  }\n\n  Object[] public objects;\n\n  mapping (uint => address) public objectToOwner;\n  mapping (address => uint) ownerObjectsCount;\n  mapping (uint => uint) public betToObject;\n\n  function createObject(string _name, uint _totalCostInEther, uint _numBettors) public payable returns(bool success) {\n    //require(msg.value == ((_totalCostInEther * 5)/100));\n    _createObject(_name, _totalCostInEther, _numBettors);\n    return true;\n  }\n\n  function objectFund(uint _id) public view returns(uint){\n    Object memory o = objects[_id];\n    uint x = 10;\n    return(x);\n  }\n\n  function objectBetAmount(uint _id) view public returns(uint){\n    return(objects[_id].totalCostInEther * depositPercent / 100);\n  }\n\n  function _createObject(string _name, uint _totalCostInEther, uint _numBettors) internal {\n    uint id = objects.push(Object(_name, Status.inactive, _totalCostInEther, _numBettors));\n    objectToOwner[id] = msg.sender;\n    ownerObjectsCount[msg.sender]++;\n    emit newObject(id, _name, _totalCostInEther, _numBettors);\n  }\n\n  function objectsCount() external view returns(uint){\n    return objects.length;\n  }\n\n  function getObject(uint _id) public view returns(string, Status, uint, uint) {\n    Object memory o = objects[_id];\n    return(o.name, o.status, o.numBettors, o.totalCostInEther);\n  }\n\n}\n",
  "sourcePath": "/Users/Baba/cbay/contracts/ObjectFactory.sol",
  "compiler": {
    "name": "solc",
    "version": "0.4.24+commit.e67f0147.Emscripten.clang"
  },
  "schemaVersion": "2.0.1",
  "updatedAt": "2018-11-06T22:57:33.258Z"
}