{
  "contractName": "ObjectFactory",
  "abi": [
    {
      "constant": true,
      "inputs": [
        {
          "name": "",
          "type": "uint256"
        }
      ],
      "name": "objectToOwner",
      "outputs": [
        {
          "name": "",
          "type": "address"
        }
      ],
      "payable": false,
      "stateMutability": "view",
      "type": "function"
    },
    {
      "constant": true,
      "inputs": [
        {
          "name": "",
          "type": "uint256"
        }
      ],
      "name": "objects",
      "outputs": [
        {
          "name": "name",
          "type": "string"
        },
        {
          "name": "status",
          "type": "uint8"
        },
        {
          "name": "bettorsCount",
          "type": "uint64"
        },
        {
          "name": "totalCost",
          "type": "uint256"
        }
      ],
      "payable": false,
      "stateMutability": "view",
      "type": "function"
    },
    {
      "anonymous": false,
      "inputs": [
        {
          "indexed": false,
          "name": "objectId",
          "type": "uint256"
        },
        {
          "indexed": false,
          "name": "name",
          "type": "string"
        },
        {
          "indexed": false,
          "name": "_bettorsCount",
          "type": "uint64"
        },
        {
          "indexed": false,
          "name": "_totalCost",
          "type": "uint256"
        }
      ],
      "name": "newObject",
      "type": "event"
    },
    {
      "constant": true,
      "inputs": [],
      "name": "objectsCount",
      "outputs": [
        {
          "name": "",
          "type": "uint256"
        }
      ],
      "payable": false,
      "stateMutability": "view",
      "type": "function"
    },
    {
      "constant": true,
      "inputs": [
        {
          "name": "id",
          "type": "uint256"
        }
      ],
      "name": "getObject",
      "outputs": [
        {
          "name": "",
          "type": "string"
        },
        {
          "name": "",
          "type": "uint8"
        },
        {
          "name": "",
          "type": "uint64"
        },
        {
          "name": "",
          "type": "uint256"
        }
      ],
      "payable": false,
      "stateMutability": "view",
      "type": "function"
    },
    {
      "constant": false,
      "inputs": [
        {
          "name": "_name",
          "type": "string"
        },
        {
          "name": "_bettorsCount",
          "type": "uint64"
        },
        {
          "name": "_totalCost",
          "type": "uint256"
        }
      ],
      "name": "createObject",
      "outputs": [
        {
          "name": "success",
          "type": "bool"
        }
      ],
      "payable": false,
      "stateMutability": "nonpayable",
      "type": "function"
    }
  ],
  "bytecode": "0x608060405234801561001057600080fd5b50610985806100206000396000f30060806040526004361061006d576000357c0100000000000000000000000000000000000000000000000000000000900463ffffffff1680631ed1dda41461007257806328316b391461009d5780639e2f74a61461017a578063c793cff914610219578063ed17585014610286575b600080fd5b34801561007e57600080fd5b50610087610363565b6040518082815260200191505060405180910390f35b3480156100a957600080fd5b506100c86004803603810190808035906020019092919050505061036f565b60405180806020018560028111156100dc57fe5b60ff1681526020018467ffffffffffffffff1667ffffffffffffffff168152602001838152602001828103825286818151815260200191508051906020019080838360005b8381101561013c578082015181840152602081019050610121565b50505050905090810190601f1680156101695780820380516001836020036101000a031916815260200191505b509550505050505060405180910390f35b34801561018657600080fd5b506101ff600480360381019080803590602001908201803590602001908080601f0160208091040260200160405190810160405280939291908181526020018383808284378201915050505050509192919290803567ffffffffffffffff169060200190929190803590602001909291905050506104db565b604051808215151515815260200191505060405180910390f35b34801561022557600080fd5b50610244600480360381019080803590602001909291905050506104f3565b604051808273ffffffffffffffffffffffffffffffffffffffff1673ffffffffffffffffffffffffffffffffffffffff16815260200191505060405180910390f35b34801561029257600080fd5b506102b160048036038101908080359060200190929190505050610526565b60405180806020018560028111156102c557fe5b60ff1681526020018467ffffffffffffffff1667ffffffffffffffff168152602001838152602001828103825286818151815260200191508051906020019080838360005b8381101561032557808201518184015260208101905061030a565b50505050905090810190601f1680156103525780820380516001836020036101000a031916815260200191505b509550505050505060405180910390f35b60008080549050905090565b6060600080600061037e610876565b60008681548110151561038d57fe5b906000526020600020906003020160806040519081016040529081600082018054600181600116156101000203166002900480601f0160208091040260200160405190810160405280929190818152602001828054600181600116156101000203166002900480156104405780601f1061041557610100808354040283529160200191610440565b820191906000526020600020905b81548152906001019060200180831161042357829003601f168201915b505050505081526020016001820160009054906101000a900460ff16600281111561046757fe5b600281111561047257fe5b81526020016001820160019054906101000a900467ffffffffffffffff1667ffffffffffffffff1667ffffffffffffffff168152602001600282015481525050905080600001518160200151826040015183606001518393509450945094509450509193509193565b60006104e884848461061e565b600190509392505050565b60016020528060005260406000206000915054906101000a900473ffffffffffffffffffffffffffffffffffffffff1681565b60008181548110151561053557fe5b9060005260206000209060030201600091509050806000018054600181600116156101000203166002900480601f0160208091040260200160405190810160405280929190818152602001828054600181600116156101000203166002900480156105e15780601f106105b6576101008083540402835291602001916105e1565b820191906000526020600020905b8154815290600101906020018083116105c457829003601f168201915b5050505050908060010160009054906101000a900460ff16908060010160019054906101000a900467ffffffffffffffff16908060020154905084565b6000806080604051908101604052808681526020016000600281111561064057fe5b81526020018567ffffffffffffffff168152602001848152509080600181540180825580915050906001820390600052602060002090600302016000909192909190915060008201518160000190805190602001906106a09291906108b4565b5060208201518160010160006101000a81548160ff021916908360028111156106c557fe5b021790555060408201518160010160016101000a81548167ffffffffffffffff021916908367ffffffffffffffff1602179055506060820151816002015550509050336001600083815260200190815260200160002060006101000a81548173ffffffffffffffffffffffffffffffffffffffff021916908373ffffffffffffffffffffffffffffffffffffffff160217905550600260003373ffffffffffffffffffffffffffffffffffffffff1673ffffffffffffffffffffffffffffffffffffffff168152602001908152602001600020600081548092919060010191905055507f5098e475be5a9043a7a39fe2fb89197c366b5b5a179875d7f6e887b6521b6ec38185858560405180858152602001806020018467ffffffffffffffff1667ffffffffffffffff168152602001838152602001828103825285818151815260200191508051906020019080838360005b83811015610833578082015181840152602081019050610818565b50505050905090810190601f1680156108605780820380516001836020036101000a031916815260200191505b509550505050505060405180910390a150505050565b608060405190810160405280606081526020016000600281111561089657fe5b8152602001600067ffffffffffffffff168152602001600081525090565b828054600181600116156101000203166002900490600052602060002090601f016020900481019282601f106108f557805160ff1916838001178555610923565b82800160010185558215610923579182015b82811115610922578251825591602001919060010190610907565b5b5090506109309190610934565b5090565b61095691905b8082111561095257600081600090555060010161093a565b5090565b905600a165627a7a723058208420dfce8f889ac6872bc2ef9a840615fcc7a406f4a7eb056dfee87e4d4b758c0029",
  "source": "pragma solidity ^0.4.24;\n\n\ncontract ObjectFactory {\n\n  event newObject(uint objectId, string name, uint64 _bettorsCount,\n                  uint _totalCost);\n\n  enum Status {inactive, active, processed}\n\n  struct Object{\n    string name;\n    Status status;\n    uint64 bettorsCount;\n    uint totalCost;\n  }\n\n  Object[] public objects;\n\n  mapping (uint => address) public objectToOwner;\n  mapping (address => uint) ownerObjectsCount;\n\n  function _createObject(string _name, uint64 _bettorsCount, uint _totalCost) internal {\n    uint id = objects.push(Object(_name, Status.inactive, _bettorsCount, _totalCost));\n    objectToOwner[id] = msg.sender;\n    ownerObjectsCount[msg.sender]++;\n    emit newObject(id, _name, _bettorsCount, _totalCost);\n  }\n\n  function objectsCount() external view returns(uint){\n    return objects.length;\n  }\n\n  function getObject(uint id) external view returns(string, Status, uint64, uint) {\n    Object memory o = objects[id];\n    return(o.name, o.status, o.bettorsCount, o.totalCost);\n  }\n\n  function createObject(string _name, uint64 _bettorsCount, uint _totalCost) public returns(bool success) {\n    _createObject(_name, _bettorsCount, _totalCost);\n    return true;\n  }\n}\n",
  "sourcePath": "/home/mq/cryptoobjects/contracts/ObjectFactory.sol",
  "compiler": {
    "name": "solc",
    "version": "0.4.24+commit.e67f0147.Emscripten.clang"
  },
  "schemaVersion": "2.0.1",
  "updatedAt": "2018-10-25T20:38:25.814Z"
}